:020000040800F2
:100000000004002001010008090100080B0100089C
:100010000D0100080F010008110100080000000098
:1000200000000000000000000000000013010008B4
:100030001501000800000000170100081901000860
:100040001B0100081B0100081B0100081B01000820
:100050001B0100081B0100081B0100081B01000810
:100060001B0100081B0100081B0100081B01000800
:100070001B0100081B0100081B0100081B010008F0
:100080001B0100081B0100081B0100081B010008E0
:100090001B0100081B0100081B0100081B010008D0
:1000A0001B0100081B0100081B0100081B010008C0
:1000B0001B0100081B0100081B0100081B010008B0
:1000C0001B0100081B0100081B0100081B010008A0
:1000D0001B0100081B0100081B0100081B01000890
:1000E0001B0100081B0100081B010008DFF80CD0F1
:1000F00000F018F8004800476902000800040020DA
:100100000648804706480047FEE7FEE7FEE7FEE7B1
:10011000FEE7FEE7FEE7FEE7FEE7FEE71102000866
:10012000ED000008064C074D06E0E06840F00103D2
:1001300094E8070098471034AC42F6D3FFF7DAFF93
:10014000880200089802000880B500F001F880BD20
:1001500082B041F204000021C4F20200019100913A
:1001600050F8041C41F4803140F8041C50F8041C81
:1001700001F400310091019901310191009919B9FF
:100180000199B1F5A06FF1D150F8041C890354BF57
:100190000021012100910099012936D142F200018C
:1001A000C4F202010A6842F010020A600A6822F0F2
:1001B00007020A600A6842F002020A6001680160F0
:1001C00001680160016841F480610160016821F407
:1001D0007C110160016841F4E811016050F8041CD1
:1001E00041F0807140F8041C50F8041C8901FBD5D3
:1001F000016821F003010160016841F00201016022
:10020000016801F00C010829FAD102B07047000022
:1002100080B541F20000C4F202000168002241F002
:10022000010101604168CFF6FF02114041600168A1
:100230004FF6FF72CFF6F66211400160016821F4BB
:1002400080210160416821F4FE0141604FF41F01EB
:100250008160FFF779FF4EF60850CEF200004FF0B4
:100260000061016080BD0000FEE702E008C8121FC7
:1002700008C1002AFAD170477047002001E001C18F
:10028000121F002AFBD170479802000800000020CE
:08029000000400007A020008DE
:04000005080000ED02
:00000001FF
